:100000000C948A000C94B2000C94B2000C94B200D0
:100010000C94B2000C94B2000C94B2000C94B20098
:100020000C94B2000C94B2000C94B2000C94B20088
:100030000C94B2000C94B2000C94B2000C94B20078
:100040000C948E040C94B2000C945C040C94360452
:100050000C94B2000C94B2000C94B2000C94B20058
:100060000C94B2000C94B20008000000BE92244927
:10007000123EABAAAA2ABECDCCCC4C3E00000080DA
:10008000BEABAAAAAA3E00000000BF000000803F4D
:100090000000000000084178D3BB4387D1133D190D
:1000A0000E3CC3BD4282AD2B3E68EC8276BED98F3A
:1000B000E1A93E4C80EFFFBE01C4FF7F3F0000007E
:1000C000000000000000240027002A0000000000BB
:1000D000250028002B000404040404040404020284
:1000E00002020202030303030303010204081020B7
:1000F00040800102040810200102040810200000C2
:1001000000080002010000030407000000000000D6
:100110000000D80411241FBECFEFD8E0DEBFCDBF52
:1001200011E0A0E0B1E0E0EBF6E102C005900D9235
:10013000AC39B107D9F722E0ACE9B1E001C01D92BA
:10014000A736B207E1F710E0CAE8D0E004C0219773
:10015000FE010E944B0BC938D107C9F70E94220546
:100160000C94560B0C940000CF92DF92EF92FF920A
:100170000F931F93CF93DF936C017A018B01C0E043
:10018000D0E0CE15DF0581F0D8016D918D01D6014B
:10019000ED91FC910190F081E02DC6010995892B2C
:1001A00011F02196EECF7E01C701DF91CF911F9113
:1001B0000F91FF90EF90DF90CF900895FC01538D49
:1001C000448D252F30E0842F90E0821B930B541731
:1001D00010F0CF96089501970895FC01918D828DBE
:1001E000981761F0828DDF01A80FB11D5D968C918B
:1001F000928D9F5F9F73928F90E008958FEF9FEF96
:100200000895FC01918D828D981731F0828DE80F51
:10021000F11D858D90E008958FEF9FEF0895FC010B
:10022000918D228D892F90E0805C9F4F821B9109D8
:100230008F739927089582EB91E00E940F0121E0CE
:10024000892B09F420E0822F0895FC01848DDF01C1
:10025000A80FB11DA35ABF4F2C91848D90E0019639
:100260008F739927848FA689B7892C93A089B18928
:100270008C91837080648C93938D848D981306C0C9
:100280000288F389E02D80818F7D80830895EF922D
:10029000FF920F931F93CF93DF93EC0181E0888F40
:1002A0009B8D8C8D981305C0E889F989808185FD27
:1002B00026C0F62E0B8D10E00F5F1F4F0F73112716
:1002C000E02E8C8DE8120CC00FB607FCFACFE8893F
:1002D000F989808185FFF5CFCE010E942501F1CFFC
:1002E0008B8DFE01E80FF11DE35AFF4FF0829FB79F
:1002F000F8940B8FEA89FB89808180620AC09FB7DE
:10030000F894EE89FF896083E889F9898081837098
:10031000806480839FBF81E090E0DF91CF911F9147
:100320000F91FF90EF900895CF93DF93EC01888DAC
:100330008823C9F0EA89FB89808185FD05C0A889E9
:10034000B9898C9186FD0FC00FB607FCF5CF80816F
:1003500085FFF2CFA889B9898C9185FFEDCFCE01B9
:100360000E942501E7CFDF91CF91089580E090E0D2
:10037000892B29F00E941B0181110C940000089523
:1003800090E0FC01E250FF4F2491FC01E651FF4F49
:100390003491FC01EA52FF4FE491EE2309F43CC092
:1003A000222339F1233091F038F42130A9F02230A2
:1003B00001F584B58F7D12C0273091F02830A1F06F
:1003C0002430B9F4809180008F7D03C0809180003B
:1003D0008F77809380000DC084B58F7784BD09C06E
:1003E0008091B0008F7703C08091B0008F7D8093A3
:1003F000B000F0E0EE0FFF1FE453FF4FA591B49162
:100400009FB7F894611104C08C913095382302C0D5
:10041000EC913E2B3C939FBF0895CF93DF9390E0E8
:10042000FC01E651FF4F2491FC01EA52FF4F8491F9
:10043000882361F190E0880F991FFC01EE53FF4F74
:10044000C591D491FC01E453FF4FA591B491611182
:1004500009C09FB7F8948881209582238883EC9106
:100460002E230BC0623061F49FB7F8948881322F3D
:10047000309583238883EC912E2B2C939FBF06C04D
:100480008FB7F894E8812E2B28838FBFDF91CF910F
:1004900008958E3008F08E508770806480937C00C1
:1004A00080917A00806480937A0080917A0086FD42
:1004B000FCCF809178002091790090E0922B0895F4
:1004C0003FB7F8948091A1019091A201A091A3015E
:1004D000B091A40126B5A89B05C02F3F19F0019645
:1004E000A11DB11D3FBFBA2FA92F982F8827820FBA
:1004F000911DA11DB11DBC01CD0142E0660F771F0A
:10050000881F991F4A95D1F708958F929F92AF92B5
:10051000BF92CF92DF92EF92FF926B017C010E941B
:1005200060024B015C01C114D104E104F104F1F05B
:100530000E946002DC01CB0188199909AA09BB0954
:10054000883E9340A105B10570F321E0C21AD1089D
:10055000E108F10888EE880E83E0981EA11CB11C0A
:10056000C114D104E104F10419F7DDCFFF90EF903D
:10057000DF90CF90BF90AF909F908F900895CF93D2
:10058000DF93EC0160E08E810E94C00161E08E810A
:100590000E94C00160E08E810E94C0018BE891E062
:1005A0000197F1F7DF91CF910895CF92DF92EF920B
:1005B000FF920F931F93CF93DF936C017C0187E031
:1005C000E80EF11CC0E0D0E0062F10E0B8010C2EC0
:1005D00002C0759567950A94E2F76170F701819101
:1005E0007F010E94C0012196C430D10579F7C60170
:1005F000DF91CF911F910F91FF90EF90DF90CF90FF
:100600000C94BF02CF92DF92EF92FF920F931F9351
:10061000CF93DF93EC01F62E642F8C810E94C001F2
:100620008D818F3F19F060E00E94C0018F850F2DF2
:1006300010E084FF25C06E0187E0C80ED11CE12CBC
:10064000F12CB8010E2C02C0759567950A94E2F75B
:100650006170F60181916F010E94C001FFEFEF1AF6
:10066000FF0A88E0E816F10461F7CE01DF91CF912F
:100670001F910F91FF90EF90DF90CF900C94BF02ED
:10068000B80184E0759567958A95E1F7CE010E94DF
:10069000D5026F2DCE01DF91CF911F910F91FF9069
:1006A000EF90DF90CF900C94D50240E0682F8FE45C
:1006B00092E00C94020381E00E9455038BE39FE1DA
:1006C0000197F1F70895CF93DF93823028F090914E
:1006D0005E02986090935E028093620210926302C1
:1006E00080E48093640280E18093650280E58093DA
:1006F000660261E0809153020E940D0280915402D3
:100700008F3F19F061E00E940D0261E08091550277
:100710000E940D02CFE4D2E09E012F54324080911E
:100720005E0284FD03C084E090E002C088E090E0B7
:100730002196281739072CF461E08E810E940D0262
:10074000EBCF8BE39DE00197F1F760E080915302DE
:100750000E94C00160E0809155020E94C00180911A
:1007600054028F3F19F060E00E94C00180915E0248
:1007700084FD20C063E08FE492E00E94D502CBE4C8
:10078000D6E4CE010197F1F763E08FE492E00E9496
:10079000D5022197F1F763E08FE492E00E94D50241
:1007A00083E592E00197F1F762E08FE492E00E9426
:1007B000D50215C080620E9455038BE496E4019730
:1007C000F1F780915E0280620E94550383E592E01A
:1007D0000197F1F780915E0280620E94550380913B
:1007E0005E0280620E94550384E080935F028CE089
:1007F0000E9455030E945B0382E08093600286E0C2
:10080000DF91CF910C945503643008F063E0909130
:100810006202691710F06FEF690FE62FF0E0E15BFD
:10082000FD4F9489890F80680C94550341E00E9424
:10083000020381E090E00895089580E090E008953B
:10084000009769F0FC0101900020E9F73197AF01B2
:10085000481B590BBC018FE492E00C94B40080E07B
:1008600090E008950C9420040E94510B1F920F9267
:100870000FB60F9211242F933F934F935F936F9373
:100880007F938F939F93AF93BF93EF93FF9382EBED
:1008900091E00E942501FF91EF91BF91AF919F914F
:1008A0008F917F916F915F914F913F912F910F9019
:1008B0000FBE0F901F9018951F920F920FB60F92B8
:1008C00011242F938F939F93EF93FF93E091C20195
:1008D000F091C3018081E091C801F091C90182FDCE
:1008E00012C090818091CB018F5F8F732091CC01DA
:1008F000821751F0E091CB01F0E0EE54FE4F958F5E
:100900008093CB0101C08081FF91EF919F918F91E6
:100910002F910F900FBE0F901F9018951F920F925E
:100920000FB60F9211242F933F938F939F93AF9302
:10093000BF9380919D0190919E01A0919F01B091E4
:10094000A00130919C0123E0230F2D3720F4019664
:10095000A11DB11D05C026E8230F0296A11DB11DE2
:1009600020939C0180939D0190939E01A0939F01F1
:10097000B093A0018091A1019091A201A091A30147
:10098000B091A4010196A11DB11D8093A101909386
:10099000A201A093A301B093A401BF91AF919F9135
:1009A0008F913F912F910F900FBE0F901F90189530
:1009B000E2EBF1E01382128288EE93E0A0E0B0E077
:1009C00084839583A683B78384E091E091838083B9
:1009D00085EC90E09587848784EC90E09787868704
:1009E00080EC90E0918B808B81EC90E0938B828BFC
:1009F00082EC90E0958B848B86EC90E0978B868BD5
:100A0000118E128E138E148EEFE4F2E01382128296
:100A100086E191E0918380838CE084838FEF8583EE
:100A20008BE0868385E0878384E0808783E081870D
:100A300082E082871386148615861686178681E0E3
:100A40000C946303CF93DF93CDB7DEB7A2970FB6B5
:100A5000F894DEBF0FBECDBF789484B5826084BDAC
:100A600084B5816084BD85B5826085BD85B58160B2
:100A700085BD80916E00816080936E001092810030
:100A800080918100826080938100809181008160EB
:100A900080938100809180008160809380008091AC
:100AA000B10084608093B1008091B0008160809338
:100AB000B00080917A00846080937A0080917A00FF
:100AC000826080937A0080917A00816080937A00BE
:100AD00080917A00806880937A001092C10082E051
:100AE0000E9463030E945B0361E080E00E940404B3
:100AF0008EE191E00E94320460ED77E080E090E0CA
:100B00000E94850260E08EE00E940D0260E08FE0AE
:100B10000E940D0260E080E10E940D0260E08AE028
:100B20000E940D0260E082E10E940D0260E083E11C
:100B30000E940D0261E086E00E940D0261E087E004
:100B40000E940D0261E089E00E940D0261E088E0F0
:100B50000E940D02E091C201F091C30182E0808306
:100B6000E091BE01F091BF011082E091C001F091CF
:100B7000C1018FEC80831092CA01E091C601F0910F
:100B8000C70186E08083E091C401F091C5018081B6
:100B900080618083E091C401F091C501808188600B
:100BA0008083E091C401F091C501808180688083D9
:100BB000E091C401F091C50180818F7D80830E9406
:100BC0005B039AE0892E912CA12CB12C61E080E08E
:100BD0000E9404048EE00E9449028FE00E944902B4
:100BE00080E10E9449028AE00E9449029093B1018B
:100BF0008093B0011092AF011092AE011092AD013E
:100C000081E10E944902BC01990F880B990B0E9457
:100C10007D099B01AC0160E070EC8FE794E40E94D9
:100C2000DA0820E030E040E85FE30E94680820E056
:100C300030E44CE156E40E94820A0E943A0A6B01B9
:100C40007C012CE63FEC48E554E30E94820AA701B0
:100C500096010E94820AA70196010E94820A2B0136
:100C60003C0126ED34E649E759E3C701B6010E948D
:100C7000820A2BEC38E444E85AE30E9469089B019D
:100C8000AC01C301B2010E9469089B01AC0160E0A4
:100C900070E080E89FE30E94DA0823E333E948E844
:100CA00053E40E9468086093A9017093AA0180939D
:100CB000AB019093AC0161E080E00E9404048CE2FF
:100CC00091E00E94320461E08DE00E940404C09033
:100CD000A901D090AA01E090AB01F090AC01A7016E
:100CE0009601C701B6010E94EF0A882319F082E33A
:100CF00091E01AC026013701E89477F82FEF3FEF13
:100D00004FE75FE7C301B2010E94EF0A81110FC0F4
:100D10002FEF3FEF4FE75FE7C301B2010E94D50815
:100D200018162CF486E391E00E9420049DC02FEF5A
:100D30003FEF4FE75FE4C701B6010E942D0A181686
:100D40001CF48AE391E0F0CF2FEF3FEF4FE75FEC29
:100D5000C701B6010E94D50887FDF3CF20E030E03F
:100D6000A901C701B6010E94D50887FF0AC041E06A
:100D70006DE28FE492E00E940203F7FAF094F7F834
:100D8000F0942AE037ED43EA5BE3C701B6010E9425
:100D900069082B013C010E944C096B017C010E94F7
:100DA0007B099B01AC01C301B2010E9468081B01D1
:100DB0002C0119A28E010F5D1F4F0AA3712EC701CE
:100DC000B601A50194010E94290B69017A01605DB9
:100DD000F80162938F01232B242B252B81F7CF0160
:100DE0000E94200441E06EE28FE492E00E94020340
:100DF00083E0F82EFA94FF20B9F120E030E040E2E1
:100E000051E4C201B1010E94820A1B012C010E941F
:100E10004C099B0140E050E019A20AA1172D662E53
:100E2000C32ED42EE52ECA01B901A50194010E945A
:100E3000290B605DF80162938F0121153105410591
:100E4000510589F7CF010E942004662D7C2D8D2D40
:100E50009E2D0E947B099B01AC01C201B1010E9441
:100E600068081B012C01C6CF8EE391E00E9432047A
:100E700020E030E048EC52E46091A9017091AA01B1
:100E80008091AB019091AC010E942D0A1816A4F438
:100E90000E945B0360E080E00E94040480E491E033
:100EA0000E94320461E088E00E94C00160E67AEEB0
:100EB00080E090E00E9485028091AF01882341F09C
:100EC0008091AE01882321F08091AD0181115FC036
:100ED0000E945B0360E080E00E94040482E591E0F0
:100EE0000E94320461E087E00E94C00160E27EE47B
:100EF00080E090E00E9485028AE00E94490290937F
:100F0000B1018093B0010E945B0300E010E080918A
:100F1000B0019091B101892B09F4A0C005301105F1
:100F2000C9F060E080E00E9404048EE591E00E9438
:100F3000320461E080E00E9404048AE691E00E94AD
:100F400032040F5F1F4F68EE73E080E090E00E9474
:100F50008502DDCF0E945B0360E080E00E94040414
:100F600089E791E00E94320461E080E00E9404047D
:100F700080E891E00E9432046CED75E080E090E042
:100F80000E948502E7CF60E089E00E94C001809165
:100F9000AF018823D9F08091AE018823B9F0809108
:100FA000AD01882399F08091B0019091B101892B16
:100FB00069F461E086E00E94C00160E080E00E9488
:100FC00004048DE891E00E94320445C060E086E0B0
:100FD0000E94C00161E080E00E94040489E791E082
:100FE0000E94320460ED77E080E090E00E9485028C
:100FF00061E088E00E94C00183E10E944902909371
:10100000A6018093A5010E945B038091A5019091A8
:10101000A601892BE1F083E10E9449029093A60189
:101020008093A50161E088E00E94C00160E080E05B
:101030000E9404048EE591E00E94320461E080E0A9
:101040000E9404048AE691E00E943204DECF60E050
:1010500088E00E94C0010E94B601B8CD053011059C
:1010600009F478CF68E873E180E090E00E9485029F
:1010700061E089E00E94C00182E10E9449029093F0
:10108000A8018093A7010E945B038091A701909122
:10109000A801892B09F477CF83E10E94490290933C
:1010A000A6018093A50160E080E00E9404048EE523
:1010B00091E00E94320461E080E00E9404048AE62C
:1010C00091E00E94320461E089E00E94C001DDCF1E
:1010D0005058BB27AA270E9480080C94F3090E944D
:1010E000E50938F00E94EC0920F039F49F3F19F42B
:1010F00026F40C94E2090EF4E095E7FB0C94DC096D
:10110000E92F0E94040A58F3BA176207730784078D
:10111000950720F079F4A6F50C94260A0EF4E095D4
:101120000B2EBA2FA02D0B01B90190010C01CA01A1
:10113000A0011124FF27591B99F0593F50F4503E4C
:1011400068F11A16F040A22F232F342F4427585F3E
:10115000F3CF469537952795A795F0405395C9F756
:101160007EF41F16BA0B620B730B840BBAF091500E
:10117000A1F0FF0FBB1F661F771F881FC2F70EC0AD
:10118000BA0F621F731F841F48F487957795679580
:10119000B795F7959E3F08F0B0CF9395880F08F06C
:1011A0009927EE0F9795879508950E94B80908F43E
:1011B00081E008950E94EE080C94F3090E94EC0966
:1011C00058F00E94E50940F029F45F3F29F00C94A3
:1011D000DC0951110C94270A0C94E2090E94040ABC
:1011E00068F39923B1F3552391F3951B550BBB2756
:1011F000AA2762177307840738F09F5F5F4F220F9B
:10120000331F441FAA1FA9F335D00E2E3AF0E0E891
:1012100032D091505040E695001CCAF72BD0FE2FDB
:1012200029D0660F771F881FBB1F2617370748076F
:10123000AB07B0E809F0BB0B802DBF01FF27935827
:101240005F4F3AF09E3F510578F00C94DC090C9406
:10125000270A5F3FE4F3983ED4F386957795679528
:10126000B795F7959F5FC9F7880F911D969587955C
:1012700097F90895E1E0660F771F881FBB1F62177B
:1012800073078407BA0720F0621B730B840BBA0B39
:10129000EE1F88F7E09508950E940C0A88F09F578A
:1012A00098F0B92F9927B751B0F0E1F0660F771F8A
:1012B000881F991F1AF0BA95C9F714C0B13091F080
:1012C0000E94260AB1E008950C94260A672F782F11
:1012D0008827B85F39F0B93FCCF386957795679545
:1012E000B395D9F73EF490958095709561957F4FB1
:1012F0008F4F9F4F0895E89409C097FB3EF4909557
:101300008095709561957F4F8F4F9F4F9923A9F0DE
:10131000F92F96E9BB279395F6958795779567956D
:10132000B795F111F8CFFAF4BB0F11F460FF1BC0B1
:101330006F5F7F4F8F4F9F4F16C0882311F096E944
:1013400011C0772321F09EE8872F762F05C06623F2
:1013500071F096E8862F70E060E02AF09A95660FAB
:10136000771F881FDAF7880F9695879597F9089564
:10137000990F0008550FAA0BE0E8FEEF16161706A6
:10138000E807F907C0F012161306E407F50798F00E
:10139000621B730B840B950B39F40A2661F0232B27
:1013A000242B252B21F408950A2609F4A140A695A3
:1013B0008FEF811D811D089597F99F6780E870E088
:1013C00060E008959FEF80EC089500240A941616BB
:1013D000170618060906089500240A941216130623
:1013E000140605060895092E0394000C11F48823B1
:1013F00052F0BB0F40F4BF2B11F460FF04C06F5FCD
:101400007F4F8F4F9F4F089557FD9058440F551FA2
:1014100059F05F3F71F04795880F97FB991F61F076
:101420009F3F79F087950895121613061406551FED
:10143000F2CF4695F1DF08C0161617061806991F59
:10144000F1CF86957105610508940895E894BB274E
:1014500066277727CB0197F908950E94B80908F409
:101460008FEF089516F00C94F40A0C94E209689436
:101470000C94DC090E940C0AA8F39923C1F3AEF383
:10148000DF93CF931F930F93FF92C92FDD278823FC
:101490002AF02197660F771F881FDAF720E030E0E7
:1014A00040E85FEB9FE3883920F0803E38F02196DA
:1014B0008F770E946908E8E6F0E004C00E9469089E
:1014C000E5E9F0E00E94020B8B01BE01EC01FB2E6E
:1014D0006F5771097595771F880B990B0E947D09CD
:1014E00028E132E741E35FE30E94950AAF2D9801BE
:1014F000AE01FF900F911F91CF91DF910E94800864
:101500000C94F3090E94950A0C94F3090E94E509D2
:1015100038F00E94EC0920F0952311F00C94DC09BE
:101520000C94E20911240C94270A0E94040A70F317
:10153000959FC1F3950F50E0551F629FF001729F78
:10154000BB27F00DB11D639FAA27F00DB11DAA1F87
:10155000649F6627B00DA11D661F829F2227B00DD4
:10156000A11D621F739FB00DA11D621F839FA00D5F
:10157000611D221F749F3327A00D611D231F849FAF
:10158000600D211D822F762F6A2F11249F57504006
:101590009AF0F1F088234AF0EE0FFF1FBB1F661F81
:1015A000771F881F91505040A9F79E3F510580F04A
:1015B0000C94DC090C94270A5F3FE4F3983ED4F3C3
:1015C000869577956795B795F795E7959F5FC1F7EE
:1015D000FE2B880F911D9695879597F908950E9487
:1015E000B809880B990B08959F3F31F0915020F472
:1015F000879577956795B795880F911D96958795EF
:1016000097F90895DF93CF931F930F93FF92EF9273
:10161000DF927B018C01689406C0DA2EEF010E94F4
:10162000950AFE01E894A591259135914591559132
:10163000A6F3EF010E948008FE019701A801DA9449
:1016400069F7DF90EF90FF900F911F91CF91DF919D
:101650000895A1E21A2EAA1BBB1BFD010DC0AA1FF3
:10166000BB1FEE1FFF1FA217B307E407F50720F00B
:10167000A21BB30BE40BF50B661F771F881F991F86
:101680001A9469F760957095809590959B01AC01CF
:10169000BD01CF010895EE0FFF1F0590F491E02DDD
:1016A000099481E090E0F8940C94560BF894FFCFE5
:1016B000000000004701B400DE0094010F01ED00BE
:1016C0000101000000001604B4001D041C044D615B
:1016D000646520627920474147414E0054454D5092
:1016E00020006E616E00696E66006F7666004300D2
:1016F00054454D504552415455524520484947485C
:1017000021004C4F5720564F4C54414745005741FC
:101710004954494E4720464F52002020202046453C
:1017200045444241434B2E2E004552524F52210018
:10173000506C65617365205265736574004556454C
:0C17400052595448494E47204F4B0000BE
:107E0000112484B714BE81FFF0D085E080938100F7
:107E100082E08093C00088E18093C10086E0809377
:107E2000C20080E18093C4008EE0C9D0259A86E02C
:107E300020E33CEF91E0309385002093840096BBD3
:107E4000B09BFECF1D9AA8958150A9F7CC24DD24C4
:107E500088248394B5E0AB2EA1E19A2EF3E0BF2EE7
:107E6000A2D0813461F49FD0082FAFD0023811F036
:107E7000013811F484E001C083E08DD089C08234E0
:107E800011F484E103C0853419F485E0A6D080C0E4
:107E9000853579F488D0E82EFF2485D0082F10E0AE
:107EA000102F00270E291F29000F111F8ED06801E7
:107EB0006FC0863521F484E090D080E0DECF843638
:107EC00009F040C070D06FD0082F6DD080E0C81688
:107ED00080E7D80618F4F601B7BEE895C0E0D1E017
:107EE00062D089930C17E1F7F0E0CF16F0E7DF06D8
:107EF00018F0F601B7BEE89568D007B600FCFDCFD4
:107F0000A601A0E0B1E02C9130E011968C91119780
:107F100090E0982F8827822B932B1296FA010C0160
:107F200087BEE89511244E5F5F4FF1E0A038BF0790
:107F300051F7F601A7BEE89507B600FCFDCF97BE46
:107F4000E89526C08437B1F42ED02DD0F82E2BD052
:107F50003CD0F601EF2C8F010F5F1F4F84911BD097
:107F6000EA94F801C1F70894C11CD11CFA94CF0C13
:107F7000D11C0EC0853739F428D08EE10CD085E9AC
:107F80000AD08FE07ACF813511F488E018D01DD067
:107F900080E101D065CF982F8091C00085FFFCCF94
:107FA0009093C60008958091C00087FFFCCF809118
:107FB000C00084FD01C0A8958091C6000895E0E648
:107FC000F0E098E1908380830895EDDF803219F02E
:107FD00088E0F5DFFFCF84E1DECF1F93182FE3DFCA
:107FE0001150E9F7F2DF1F91089580E0E8DFEE27F6
:047FF000FF270994CA
:027FFE00040479
:0400000300007E007B
:00000001FF
